{
  "_format": "hh-sol-artifact-1",
  "contractName": "Staking",
  "sourceName": "contracts/Staking.sol",
  "abi": [
    {
      "inputs": [
        {
          "internalType": "address",
          "name": "_nuke_Token",
          "type": "address"
        }
      ],
      "stateMutability": "nonpayable",
      "type": "constructor"
    },
    {
      "inputs": [],
      "name": "TransferFailed",
      "type": "error"
    },
    {
      "inputs": [],
      "name": "buyToken",
      "outputs": [],
      "stateMutability": "payable",
      "type": "function"
    },
    {
      "inputs": [],
      "name": "claimReward",
      "outputs": [],
      "stateMutability": "nonpayable",
      "type": "function"
    },
    {
      "inputs": [
        {
          "internalType": "address",
          "name": "",
          "type": "address"
        }
      ],
      "name": "depositTime",
      "outputs": [
        {
          "internalType": "uint256",
          "name": "",
          "type": "uint256"
        }
      ],
      "stateMutability": "view",
      "type": "function"
    },
    {
      "inputs": [
        {
          "internalType": "address",
          "name": "",
          "type": "address"
        }
      ],
      "name": "isStaking",
      "outputs": [
        {
          "internalType": "bool",
          "name": "",
          "type": "bool"
        }
      ],
      "stateMutability": "view",
      "type": "function"
    },
    {
      "inputs": [],
      "name": "nuke_Token",
      "outputs": [
        {
          "internalType": "contract TokenNuke",
          "name": "",
          "type": "address"
        }
      ],
      "stateMutability": "view",
      "type": "function"
    },
    {
      "inputs": [],
      "name": "owner",
      "outputs": [
        {
          "internalType": "address",
          "name": "",
          "type": "address"
        }
      ],
      "stateMutability": "view",
      "type": "function"
    },
    {
      "inputs": [
        {
          "internalType": "address",
          "name": "",
          "type": "address"
        }
      ],
      "name": "rewardAmount",
      "outputs": [
        {
          "internalType": "uint256",
          "name": "",
          "type": "uint256"
        }
      ],
      "stateMutability": "view",
      "type": "function"
    },
    {
      "inputs": [],
      "name": "rewardCount",
      "outputs": [],
      "stateMutability": "nonpayable",
      "type": "function"
    },
    {
      "inputs": [
        {
          "internalType": "uint256",
          "name": "_amount",
          "type": "uint256"
        }
      ],
      "name": "stakeToken",
      "outputs": [],
      "stateMutability": "nonpayable",
      "type": "function"
    },
    {
      "inputs": [
        {
          "internalType": "address",
          "name": "",
          "type": "address"
        }
      ],
      "name": "stakersEth",
      "outputs": [
        {
          "internalType": "uint256",
          "name": "",
          "type": "uint256"
        }
      ],
      "stateMutability": "view",
      "type": "function"
    },
    {
      "inputs": [
        {
          "internalType": "address",
          "name": "",
          "type": "address"
        }
      ],
      "name": "stakingBal",
      "outputs": [
        {
          "internalType": "uint256",
          "name": "",
          "type": "uint256"
        }
      ],
      "stateMutability": "view",
      "type": "function"
    },
    {
      "inputs": [],
      "name": "total_Supply",
      "outputs": [
        {
          "internalType": "uint256",
          "name": "",
          "type": "uint256"
        }
      ],
      "stateMutability": "view",
      "type": "function"
    },
    {
      "inputs": [
        {
          "internalType": "uint256",
          "name": "_amount",
          "type": "uint256"
        }
      ],
      "name": "withdraw",
      "outputs": [],
      "stateMutability": "payable",
      "type": "function"
    }
  ],
  "bytecode": "0x608060405234801561001057600080fd5b50604051610b6f380380610b6f83398101604081905261002f91610062565b6001600081905580546001600160a01b039092166001600160a01b03199283161790556003805490911633179055610092565b60006020828403121561007457600080fd5b81516001600160a01b038116811461008b57600080fd5b9392505050565b610ace806100a16000396000f3fe6080604052600436106100d15760003560e01c80636f49712b1161007f5780638da5cb5b116100595780638da5cb5b14610255578063a482171914610275578063b88a802f1461027d578063cda6b8471461029257600080fd5b80636f49712b146101d357806379085425146102135780638d8503641461022857600080fd5b806346c64873116100b057806346c648731461014c578063645a8a56146101795780636babf8a0146101a657600080fd5b8062d56748146100d65780632682b11c146101135780632e1a7d4d14610137575b600080fd5b3480156100e257600080fd5b506001546100f6906001600160a01b031681565b6040516001600160a01b0390911681526020015b60405180910390f35b34801561011f57600080fd5b5061012960025481565b60405190815260200161010a565b61014a6101453660046109ad565b6102b2565b005b34801561015857600080fd5b506101296101673660046109c6565b60076020526000908152604090205481565b34801561018557600080fd5b506101296101943660046109c6565b60056020526000908152604090205481565b3480156101b257600080fd5b506101296101c13660046109c6565b60046020526000908152604090205481565b3480156101df57600080fd5b506102036101ee3660046109c6565b60086020526000908152604090205460ff1681565b604051901515815260200161010a565b34801561021f57600080fd5b5061014a610483565b34801561023457600080fd5b506101296102433660046109c6565b60066020526000908152604090205481565b34801561026157600080fd5b506003546100f6906001600160a01b031681565b61014a610529565b34801561028957600080fd5b5061014a610636565b34801561029e57600080fd5b5061014a6102ad3660046109ad565b61073e565b6002600054141561030a5760405162461bcd60e51b815260206004820152601f60248201527f5265656e7472616e637947756172643a207265656e7472616e742063616c6c0060448201526064015b60405180910390fd5b600260009081553381526006602052604090205481111561036d5760405162461bcd60e51b815260206004820152601060248201527f4e6f7420656e6f75676820746f6b656e000000000000000000000000000000006044820152606401610301565b336000908152600660205260408120805483929061038c908490610a0c565b9250508190555080600260008282546103a59190610a0c565b909155505060015460405163a9059cbb60e01b8152336004820152602481018390526000916001600160a01b03169063a9059cbb90604401602060405180830381600087803b1580156103f757600080fd5b505af115801561040b573d6000803e3d6000fd5b505050506040513d601f19601f8201168201806040525081019061042f9190610a23565b90508061044f576040516312171d8360e31b815260040160405180910390fd5b610457610483565b505033600090815260076020908152604080832083905560089091528120805460ff1916905560019055565b3360009081526008602052604090205460ff166104e25760405162461bcd60e51b815260206004820152600b60248201527f4e6f74207374616b696e670000000000000000000000000000000000000000006044820152606401610301565b3360009081526007602052604081205481906104fe9042610a0c565b90506064811061051657610513603282610a45565b91505b5033600090815260056020526040902055565b34662386f26fc100001461057f5760405162461bcd60e51b815260206004820152601a60248201527f416d6f756e74206d75737420626520302e3031206574686572730000000000006044820152606401610301565b3360009081526004602052604090205461059a903490610a67565b3360008181526004602081905260409182902093909355600154905163a9059cbb60e01b815292830191909152606460248301526001600160a01b03169063a9059cbb90604401602060405180830381600087803b1580156105fb57600080fd5b505af115801561060f573d6000803e3d6000fd5b505050506040513d601f19601f820116820180604052508101906106339190610a23565b50565b3360009081526008602052604090205460ff16156106965760405162461bcd60e51b815260206004820152600f60248201527f5374696c6c205374616b696e67212100000000000000000000000000000000006044820152606401610301565b600154336000818152600560205260409081902054905163a9059cbb60e01b8152600481019290925260248201526001600160a01b039091169063a9059cbb90604401602060405180830381600087803b1580156106f357600080fd5b505af1158015610707573d6000803e3d6000fd5b505050506040513d601f19601f8201168201806040525081019061072b9190610a23565b5033600090815260056020526040812055565b600260005414156107915760405162461bcd60e51b815260206004820152601f60248201527f5265656e7472616e637947756172643a207265656e7472616e742063616c6c006044820152606401610301565b60026000556001546040517f70a082310000000000000000000000000000000000000000000000000000000081523360048201526064916001600160a01b0316906370a082319060240160206040518083038186803b1580156107f357600080fd5b505afa158015610807573d6000803e3d6000fd5b505050506040513d601f19601f8201168201806040525081019061082b9190610a7f565b10156108795760405162461bcd60e51b815260206004820152601a60248201527f4e6f7420656e6f756768207374616b696e672042616c616e63650000000000006044820152606401610301565b3360009081526007602052604081204290556002805483929061089d908490610a67565b909155505033600090815260066020526040812080548392906108c1908490610a67565b90915550506001546040517f23b872dd000000000000000000000000000000000000000000000000000000008152336004820152306024820152604481018390526000916001600160a01b0316906323b872dd90606401602060405180830381600087803b15801561093257600080fd5b505af1158015610946573d6000803e3d6000fd5b505050506040513d601f19601f8201168201806040525081019061096a9190610a23565b90508061098a576040516312171d8360e31b815260040160405180910390fd5b5050336000908152600860205260408120805460ff191660019081179091559055565b6000602082840312156109bf57600080fd5b5035919050565b6000602082840312156109d857600080fd5b81356001600160a01b03811681146109ef57600080fd5b9392505050565b634e487b7160e01b600052601160045260246000fd5b600082821015610a1e57610a1e6109f6565b500390565b600060208284031215610a3557600080fd5b815180151581146109ef57600080fd5b600082610a6257634e487b7160e01b600052601260045260246000fd5b500490565b60008219821115610a7a57610a7a6109f6565b500190565b600060208284031215610a9157600080fd5b505191905056fea26469706673582212205fde120a56004669cde8cf3abf9b714108c1de692624ac45063425f2300cf2d164736f6c63430008090033",
  "linkReferences": {},
  "deployedLinkReferences": {}
}